:020000040800F2
:10000000481F0020F903000891020008930200082D
:1000100095020008970200089902000800000000FD
:100020000000000000000000000000009B0200082B
:100030009D020008000000009F020008A1020008C5
:100040001304000813040008130400081304000834
:100050001304000813040008130400081304000824
:100060001304000813040008130400081304000814
:100070001304000813040008130400081304000804
:1000800013040008130400081304000813040008F4
:1000900013040008130400081304000813040008E4
:1000A00013040008130400081304000813040008D4
:1000B00013040008130400081304000813040008C4
:1000C00013040008130400081304000813040008B4
:1000D000130400081304000813040008C90E0008E4
:1000E00013040008130400081304000800F002F8C9
:1000F00000F03AF80AA090E8000C82448344AAF188
:100100000107DA4501D100F02FF8AFF2090EBAE885
:100110000F0013F0010F18BFFB1A43F0010318473B
:10012000181B0000381B0000103A24BF78C878C1A3
:10013000FAD8520724BF30C830C144BF04680C60ED
:10014000704700000023002400250026103A28BF35
:1001500078C1FBD8520728BF30C148BF0B60704739
:100160001FB51FBD10B510BD01F020FD1146FFF7F2
:10017000F7FF00F00DF801F052FD03B4FFF7F2FFB6
:1001800003BC00F009FE000080F3088870470000FF
:1001900001F0F8F801F09CFB4FF46134204600F0C8
:1001A00022FE4FF4FA7001F011F932A001F0C0FC08
:1001B000012001F00BF921462F4801F0C6FB012870
:1001C000F6D101F0BFF8000A2C4FF12803D038888F
:1001D00040F0080038802A4CD4F8140118B9388847
:1001E00040F008003880022001F0F0F8EE2001F025
:1001F00003F901F0E1F8234D686001F0DDF8DFF864
:100200008890BA46DFF884B006464FF47A774FF00C
:10021000000800BF01F091F901F0CEF86968411AB9
:1002200049450CD9BAF800100A0708D441F0020178
:10023000AAF80010C80702D1584600F08DFD01F061
:10024000BBF8801BB0FBF7F02988884208D301F087
:10025000B3F80646D4F8900148B10020C4F89001E4
:10026000D4F814010028D5D1C4F89081D2E7012038
:10027000F4E700000D0A0000640000205600002092
:10028000000021420000002007A507000020000810
:100290007047FEE7FEE7FEE7FEE7704770477047EE
:1002A000704700000CB500214B4801910091026895
:1002B00042F4803202604FF4A063026802F400321C
:1002C0000092019A521C0192009A12B9019A9A4224
:1002D000F3D10268920333D5012100913F490A68A6
:1002E00042F010020A600A6822F003020A600A68FB
:1002F00042F002020A604168416041684160416821
:1003000041F480614160416821F47C1141604168A1
:1003100041F4E8114160016841F0807101600168B9
:100320008901FCD5416821F003014160416841F039
:10033000020141604168C1F381010229FAD10CBD7B
:1003400000910CBD244810B5016841F00101016025
:100350004168234A114041600168224A114001600E
:10036000016821F480210160416821F4FE014160AF
:100370004FF41F018160FFF795FF1B494FF00060AC
:10038000086010BD144910B54868184A10F00C03F5
:10039000174803D0042B01D0082B0AD0026049680B
:1003A000134AC1F30311121D515C0268CA40026076
:1003B00010BD4A684B6802F470124FF0020413F447
:1003C000803F04EB924202D04B689B0301D5094B5E
:1003D00000E0064B5A43E1E70010024000200240D3
:1003E0000000FFF8FFFFF6FE08ED00E000127A00C3
:1003F0000C00002000093D000948804709480047DB
:10040000FEE7FEE7FEE7FEE7FEE7FEE7FEE7FEE7C4
:10041000FEE7FEE704480549054A064B7047000021
:1004200045030008ED00000848190020481F00207F
:10043000481B0020481B0020284908432849086021
:10044000704770B50F23C47801780122F4B1244CB1
:100450002468457804F4E064C4F5E064240AC4F137
:100460000406E3408478B5401C402C4301F1E021B0
:10047000230181F80034007800F01F018A40400910
:10048000800000F1E020C0F8002170BD01F01F00E5
:1004900082404809800000F1E020C0F8802170BD52
:1004A000104A114001430E48001F016070470C4A7A
:1004B000121D0029116801D0014300E08143116041
:1004C00070474FF0E0210428086903D020F00400B1
:1004D0000861704740F00400FAE700000000FA05E8
:1004E0000CED00E080FFFF1FA448016841F001010E
:1004F00001604168A24A114041600168A14A11406F
:100500000160016821F480210160416821F4FE014D
:1005100041604FF41F018160704798490A6822F4D6
:1005200080320A600A6822F480220A60B0F5803FB7
:1005300007D0B0F5802F03D1086840F4A0200860F0
:100540007047086840F48030F9E7024600205309FC
:100550008A49012B0AD0022B0AD0496A02F01F02F5
:10056000012393400B4200D0012070470968F5E752
:10057000096AF3E718B500204FF4A0640090312019
:10058000FFF7E3FF0099491C0091A14201D0002828
:10059000F5D03120FFF7D9FF002800D0012018BD89
:1005A00076490A6822F0F80242EAC0000860704703
:1005B000754908607047714A5368084323F47C13F7
:1005C0001843506070477049086670476B4A51681D
:1005D00021F003010143516070476848406800F012
:1005E0000C007047654A516821F0F00101435160E9
:1005F0007047624A516821F4E061014351607047DD
:100600005E494A6822F4605242EAC000486070477E
:100610005A4A0029517A01D0014300E081435172C6
:1006200070475949C1F8D8007047544A516821F4BD
:1006300040410143516070475049002281F8202019
:1006400081F82020012802D0042802D1052081F859
:10065000200070474D490860704748490A6A0243C4
:100660000A627047494944390860704730B54349C8
:100670004A6812F00C03464A03D0042B01D0082B21
:1006800021D002604A680F23424C03EA1212A35C95
:100690000268DA4042604B68072505EA1323E35CF1
:1006A00022FA03F383604B6805EAD323E35CDA4064
:1006B000C2604968032303EA9131231F595CB2FBEE
:1006C000F1F1016130BD4A684B6802F470124FF0DD
:1006D000020413F4803F04EB924202D04B689B0368
:1006E00001D52D4B00E02A4B5A43CAE7234A002983
:1006F000516901D0014300E08143516170471F4AB5
:100700000029916901D0014300E081439161704764
:100710001A4A0029D16901D0014300E08143D16127
:100720007047164A0029D16801D0014300E0814397
:10073000D1607047114A0029116901D0014300E0DE
:1007400081431161704711494039086070470E4973
:10075000C86470470949C87170470848416A41F048
:10076000807141627047054A0146002092680A4242
:1007700000D0012070470149887270470010024084
:100780000000FFF8FFFFF6FE0000424280044242F4
:1007900000127A002400002000093D00C44910B571
:1007A00088420AD101218C032046FFF7BAFF204678
:1007B000BDE810400021FFF7B4BFBE49884202D116
:1007C00001214C0410E0BC49884202D101218C0473
:1007D0000AE0BA49884202D10121CC0404E0B849B8
:1007E00088420AD101210C052046FFF7A3FF2046CD
:1007F000BDE810400021FFF79DBF10BD30B5044695
:10080000008A85B00D464CF6FF710840E988014327
:100810002182A1894EF6F3100140A8882A8910434D
:100820006A890A431043A081A08A4FF6FF4108401D
:10083000A9890143A1826846FFF718FF9C488442BA
:1008400001D1039800E00298A189090400EBC001DE
:1008500001EB0010296801D5490000E08900B0FBD8
:10086000F1F06422B0FBF2F109010B096FF01805F9
:100870006B4300EB8300A3891D044FF0320306D5C0
:1008800003EBC000B0FBF2F000F0070005E003EB63
:100890000010B0FBF2F000F00F000843208105B01B
:1008A00030BD4FF41651016000218180C18001816B
:1008B0000C2242818181704710B5038A4FF2FF02FA
:1008C00013400A884C8822438C88C9880C432243F1
:1008D0001A43028210BD0021018041808180C180C5
:1008E00070470029818902D041F4005101E021F4D0
:1008F00000518181704710B5C1F3421301F01F040C
:100900000121A140012B07D0022B07D01430002A6F
:10091000026805D00A4304E00C30F8E71030F6E72F
:100920008A43026010BD002A828A01D00A4300E097
:100930008A4382827047028A22F00F020282028A70
:100940000A4302827047828922F40062828182898E
:100950000A43828170470029818902D041F0020157
:1009600001E021F0020181817047028A22F0200219
:100970000282028A0A43028270470029018A02D059
:1009800041F4804101E021F4804101827047C1F3CC
:100990000801818070478088C0F308007047818912
:1009A00041F0010181817047028BD2B20283028B38
:1009B00042EA012101837047028B02F47F420283E5
:1009C000028B0A43028370470029818A02D041F0DA
:1009D000200101E021F02001818270470029818AF5
:1009E00002D041F0100101E021F010018182704736
:1009F0000029818A02D041F0080101E021F00801BC
:100A0000818270470029818902D041F4004101E0D0
:100A1000C1F30E01818170470029818A02D041F41F
:100A2000006101E021F4006181827047828A22F036
:100A300004028282828A0A43828270470029818A64
:100A400002D041F0020101E021F0020181827047F1
:100A50000246002012880A4200D001207047C94394
:100A60000180704730B501F01F0201240025C1F359
:100A7000421304FA02F2012B0FD0022B0FD0838A0B
:100A80004FEA11210088134204FA01F400EA04003D
:100A900001D000B10125284630BD8389F0E7038AE3
:100AA000EEE70A0A01219140C94301807047000026
:100AB000003801400044004000480040004C004025
:100AC00000500040914910B5884206D10121042010
:100AD000FFF727FE002104203BE08D49884206D124
:100AE00001210820FFF71DFE0021082031E089497F
:100AF000884206D101211020FFF713FE00211020AB
:100B000027E08549884206D101212020FFF709FE10
:100B1000002120201DE08149884206D1012140208A
:100B2000FFF7FFFD0021402013E07D49884206D1F8
:100B300001218020FFF7F5FD0021802009E079499F
:100B400088420AD1841501212046FFF7EAFD0021E1
:100B50002046BDE81040FFF7E4BD10BD10B50121EF
:100B60000846FFF7DEFD0021BDE810400120FFF739
:100B7000D8BDF0B5CA78002502F00F03D20601D522
:100B80008A7813430A784FF00F0E12F0FF0F4FF0E0
:100B900001021DD0D0F800400F8802FA05F6374058
:100BA000B74211D14FEA850C0EFA0CF724EA070779
:100BB00003FA0CF43C43CF78282F02D0482F02D000
:100BC00002E0466100E006616D1C082DE4D304607C
:100BD0000C88FF2C1ED944685FF0000606F1080758
:100BE00002FA07F50F882F40AF420FD14FEA860C6B
:100BF0000EFA0CF7BC4303FA0CF73C43CF78282FCE
:100C000000D14561CF78482F00D10561761C082EB0
:100C1000E4D34460F0BD4FF6FF7101800221817082
:100C20000421C17070470246002092680A4200D039
:100C300001207047806880B2704702460020D26869
:100C40000A4200D001207047C06880B2704701613D
:100C50007047416170470AB1016170474161704757
:100C6000C160704741F48032826181618261816933
:100C7000806970472C4B10B51A684FF6807422407B
:100C800042EA00100843186010BD2849C861704747
:100C9000F0B5254C002801DAE36900E06368420DF5
:100CA000120185B2C0F301579540C0F30346032FEC
:100CB00005D0C2020AD50322B240934307E023F0D5
:100CC0007062636823F07063636002E0AB4343F0DB
:100CD000706201B12A43002801DAE261F0BD62606E
:100CE000F0BD10B58A0721F003040F49130F21440A
:100CF0000F228C689A4094438C608A689840024323
:100D00008A6010BD0949C1F8DC0070470008014045
:100D1000000C014000100140001401400018014087
:100D2000001C014000200140000001400000204262
:100D300010B51448FFF732FD1348FFF7C3FEFFF765
:100D40000DFF1248FFF7BEFE1048FFF7BBFE00F094
:100D500026FBFFF7C9FB10BD10B504462068B0F1B3
:100D6000005F06D30A492068884202D82068FFF74E
:100D70000BFA084960680860FFF7DAFF0548006869
:100D8000804710BD00480040000C014000080140B1
:100D9000FF4F0020340000207047C7490A885206E0
:100DA000FCD5C54AC1B2121D1180704770B503460B
:100DB000002041F221044FF6FF7510E01A7880EA16
:100DC00002200022060403D584EA400080B201E03C
:100DD00005EA4000521CD2B2082AF3D35B1C491E1C
:100DE00089B2EBD270BD70B50546012186B088048A
:100DF000FFF78EFC01210820FFF781FC4FF4806093
:100E0000ADF8100003248DF812401820AB4E8DF879
:100E1000130004A93046FFF7ACFEF014ADF8100043
:100E200004208DF8130004A93046FFF7A2FE272006
:100E30008DF814008DF815408DF8164001208DF8BE
:100E4000170005A8FFF7FDFA0020ADF80400ADF883
:100E50000600ADF80800ADF80C000C20964CADF87B
:100E60000A00009569462046FFF7C8FC69462046FF
:100E7000FFF7C4FC012240F225512046FFF73BFD5D
:100E8000012240F224412046FFF735FD0121204692
:100E9000FFF727FD01212046FFF723FD06B070BDB7
:100EA0000422831813F8013C8354521E12F0FF02EF
:100EB000F7D1017070470022134602E08354521CA0
:100EC000D2B28A42FAD370472DE9F05F7C4C7D485C
:100ED0000025A580DFF8E091056040F225514846E5
:100EE000FFF7C0FD0126DFF8E08109F104070028C3
:100EF00070D03888754AC1B24FF0020A137804F1F5
:100F00000C00012B0ED1D37A0A2B04D2571CD955D1
:100F1000D37A5B1CD37203780D2B03D10A2901D13C
:100F200082F800A098F800300527694A4FF0060BB8
:100F30004FF00409072B1BD2DFE803F0044D408774
:100F4000695A78004378622B08D0722B11D0032B9A
:100F50001AD0022B1ED0012B22D025E000786F285A
:100F600022D16F2920D113705070917088F80060E1
:100F700089E00078652817D1732915D11370507056
:100F8000917088F800A07EE000784418FF2C0BD107
:100F9000137066E000784418FF2C05D1137067E0E9
:100FA00000784418FF2C02D0042902D06BE01370A3
:100FB00065E01170032088F8000064E06078024466
:100FC000401CC0B2D170607002285CD16570267080
:100FD000A76037E05CE0A0780244401CC0B2D1704A
:100FE000A07001284FD1A5702670C4F8089029E0A0
:100FF000E0880244401CD17080B2A0F50062E0801D
:10100000023A40D1E580267040F6050019E0E088FC
:101010000244401CD17080B2A0F58062E080023AA8
:1010200031D1E580267040F205400AE0E0880244B4
:10103000401C80B2D170E080822824D1E5802670E7
:101040008520A06088F800501DE0FB291BD1437863
:10105000032B04D0022B09D0012B0ED013E0137008
:1010600000785070917088F800700CE01370007870
:101070005070917088F8009005E0137000785070FF
:10108000917088F800B0BDE8F05F0D480C3007E7BC
:1010900010214846FFF7DCFC00280BD0B9F800000F
:1010A000388898F80000032804D1A5802670A6602F
:1010B00088F80050BDE8F09F00480040000C014057
:1010C000380000205C00002008000020D418002018
:1010D0007000002010B5A64B01460120DA68D40745
:1010E00001D0022006E0540701D5032002E0D20619
:1010F00005D50420491EF0D1022800D1062010BDDC
:10110000C0F38F207047800200F1006070472DE926
:10111000F0414FF0006101EB80264FF6FF77384633
:10112000FFF7D8FF0546012815D100F015F9904CBE
:10113000206940F0020020616661206940F04000B3
:1011400020613846FFF7C6FF0546206920F00200FF
:10115000206100F007F92846BDE8F08110B50023B2
:1011600006E000BF30F8024B21F813405B1C9BB235
:101170009342F7D310BD2DE9F047044616468A4640
:10118000C00705D1B4F1006F02D37A48844202D976
:101190000720BDE8F0874FF6FF784046FFF79AFF3B
:1011A0000746012827D100F0D7F80025DFF8C091C5
:1011B0001DE000BF3AF815704046FFF78BFF01288D
:1011C0000FD1D9F8100040F00101C9F810102780A4
:1011D0004046FFF77FFFD9F8101021F00102C9F84F
:1011E00010200746012804D16D1CADB2A41CB542E5
:1011F000E0D300F0B7F83846CBE72DE9F0475E4E74
:10120000804677133846FFF765FF044601283AD138
:1012100000F0A2F8564D5948A8605948A8602869BE
:1012200040F020002861286940F040002861B9465C
:101230003846FFF74FFF0446286920F02000286158
:10124000012C1ED1286940F400702861002728690C
:1012500040F01000286138F8170030804846FFF74A
:1012600039FF0446012804D17F1CFFB2B61C082FA9
:10127000EDD3286920F010002861286920F400705F
:10128000286100F06FF8204683E71FB50446082266
:1012900069463948FFF762FFBDF8000020F0FF0102
:1012A000ADF8001014B1ADF8001003E041F0A50056
:1012B000ADF800006846FFF7A0FF04B010BD7FB591
:1012C0000D460446082269462B48FFF747FF69464A
:1012D000600901EB4002A1084042012301EBC0007C
:1012E000834010890DB1984300E01843108168468F
:1012F000FFF783FF04B070BD1D498008096AC14033
:10130000C80701D000207047012070477FB50C4608
:101310000546082269461848FFF720FFBDF804007B
:1013200020F0FF002843ADF80400FF2C06D0BDF8E4
:10133000060020F0FF002043ADF806006846FFF7E6
:101340005CFFD7E70A48C169C069C1F38721C0F3D0
:10135000874040EA01207047054808494160084934
:10136000416070470248016941F0800101617047A6
:1013700000200240FFFF000800F8FF1F230167451F
:10138000AB89EFCD0F48016841F0807101600E48D4
:1013900000214160016841F00101016070470A4885
:1013A000016821F0010101600021416005480168E8
:1013B00021F0807101607047034848214068B0FB0C
:1013C000F1F07047FCED00E0001000E02DE9F04185
:1013D0000546FFF7F1FFFF4F04464FF47A7600BF52
:1013E000FFF7EAFFA04200D23844001BB0FBF6F042
:1013F000A842F5D3BDE8F081F749088070472DE990
:10140000F041002203E0835C1BB1521C92B28A427D
:10141000F9D3F14D312A04D90220FFF7D7FF772005
:1014200055E00021ED4B03E0445C5C54491CC9B21B
:101430009142F9D3521CDFF8A4E392B2D3B20EF179
:10144000320E04E0D41A521C0EF8041092B2815CE1
:101450000029F7D1E24C0020D71A21691BE000BF18
:101460003A1A521E16044FF00A0C360C4FF00103C4
:1014700001D0002206E0012306E000BF521C03FB5E
:101480000CF392B2B242F9D31EF80020303A02FBBC
:101490000311401CC0B28742E2DCD24ED24A881906
:1014A0002161904215D8A1B13046FFF729FEC7B29D
:1014B00020693044FFF724FEC6B2FF210846FFF73B
:1014C00025FF012823D00220FFF780FF5520288028
:1014D00090E70220FFF77AFF206908B16620F6E75F
:1014E0009920F4E73846FFF707FF40B1E088002174
:1014F00040F01000E0803846FFF7E1FE05E0384696
:10150000FFF705FE2071012803D17F1CFFB2B7420F
:10151000E8D9A079C00604D50220FFF757FF88203C
:101520002880B7424FF0020003D8FFF74FFF882012
:10153000CDE7FFF74BFF0620C9E72DE9F05FAB4988
:101540000027DFF8AC820A78A34EA54CA948032AED
:101550000DD0E2B1E268A84B521CE2609A4216D369
:101560000222E7600270C8F800700F7014E0A34A0E
:1015700041F2883513885B1C9BB21380AB4206D9BD
:10158000178001220270C8F800200F7010E0017867
:1015900001290DD0022909D107700220FFF716FF9B
:1015A00005219748FFF787FC15203080BDE8F09FA4
:1015B000077005219248FFF77EFC924D287862283B
:1015C0001ED1697828466F292ED181786F292BD1B9
:1015D000E878742828D1D8F80000042824D1E088BD
:1015E00040F00400E080810707D440F00100E08073
:1015F0000220FFF7EBFE43203080834964200880FF
:101600002978284672290FD1417865290CD1817833
:10161000732909D1C178652906D12879742803D1A5
:10162000D8F80000052812D0E088C1070ED029782C
:10163000DFF8D891DFF8D8A101290DD04FF4806BE5
:1016400002295CD003297CD004297BD023E1E088E7
:1016500040F00400E08025E1D8F800108529F5D19C
:1016600040F00400E0808021E81CFFF79FFBB5F804
:10167000831049BA884266D1687810B303214A467C
:101680004FEA0A03D2F8900100B30020C2F890019B
:1016900068180788C81E00EBD07020F00100891C74
:1016A000C9B2C7528329EDD340225949A068FFF738
:1016B00062FD207101280BD00220FFF787FE552024
:1016C0005FE08021E81CFFF79AFEE4E00120DDE7FF
:1016D000A0688030A0600220FFF778FE50E0A1787B
:1016E000491CA17000E0A77060700220FFF76EFE39
:1016F000A0780A2801D9AA2043E0152041E0D8F8B3
:101700000010A1F58062053A3CD140F00400E08071
:101710005946E81CFFF74AFBB5F8031449BA88425A
:1017200011D1032040F203474A465346D2F89011A4
:1017300021B30021C2F890112918B1F800C0C11ED0
:1017400002E020E087E07FE001EBD17121F00101B0
:10175000801C80B221F803C0B842E7D34FF4007276
:101760002B49A068FFF707FD20710128A4D10220B2
:10177000FFF72CFEA06800F5806061E00121D9E749
:101780000620308087E0D8F80010A1F50062053A05
:1017900070D140F00400E0804FF40061E81CFFF7D6
:1017A00005FBB5F8031849BA88424DD103204A46D3
:1017B000534640F6030700BFD2F8901149B100210B
:1017C000C2F890112918B1F800C0C11E01EBD17107
:1017D00020E037E0E3388E03044800407018002012
:1017E0005000002000200008FFFF00080800002033
:1017F0004000002038000020E09304003C0000205E
:101800004400002070000020000000200000214261
:101810007010002021F00101801C80B221F803C06B
:10182000B842C9D35A462749A068FFF7A4FC2071E3
:1018300001289BD10220FFF7C9FDA06800F50060D8
:10184000A0609DE70121BBE768782070617888423D
:101850007FF449AF43E7D8F8001001291BD140F0CD
:101860000400E080E078401CC0B2E070012802D0A3
:10187000022804D00FE00220FFF7A8FD3DE7022078
:10188000FFF7A4FDE77006203080FF21F120FFF76D
:101890003DFD012806D0E088410705D40220FFF76E
:1018A00095FD81E600F004F820F00400E0807DE67C
:1018B00005480168054A01F4E06111430160BFF386
:1018C0004F8FFEE7701000200CED00E00400FA05D9
:1018D000F8B501210420FEF712FF1024ADF80040F6
:1018E0000E4E8DF8034003258DF8025069463046B0
:1018F000FFF73FF910213046FFF7A9F90121042035
:10190000FEF7FDFEADF8004048208DF803008DF88D
:10191000025069463046FFF72CF9F8BD0008014037
:1019200070B500231C4672B107E0C55CCE5CB542C1
:1019300001D1641CE4B25B1CDBB29342F5D3944248
:1019400001D1012070BD002070BD2DE9F35F614E13
:10195000044690F800C071880222491C01205C4BAB
:1019600000275D4D4FF00A094FF0070B4FF0030AB7
:1019700089B2BCF10B0F14D2DFE80CF00643698F7B
:101980008F21340C141AA70022702F732870EF7265
:1019900052A004E0207028732870EF7251A000F06C
:1019A000C7F88FE020702A732870EF7252A0F6E714
:1019B000207085F80CA02870EF7255A0EFE784F82E
:1019C00000901846FEF7EAFE3220FFF7FFFC019870
:1019D000FFF709FA3220FFF7F9FC4FA000F0A8F852
:1019E0004EA0DCE784F800901846FEF7D7FE3220C0
:1019F000FFF7ECFC0198FFF7F6F93220FFF7E6FC61
:101A000060E07180642902D1778084F800A0287892
:101A1000022857D12F487780EA7A691C001DFFF70A
:101A20007FFF012801D004204BE0287B012804D04F
:101A3000022804D0032804D044E0082041E0092013
:101A40003FE0052038492070322008803AE071805C
:101A5000642912D11846FEF7A1FE3220FFF7B6FC2A
:101A60004FF41650FFF7BFF93220FFF7AFFC2AA062
:101A700000F05EF8778084F800B0287829460228C4
:101A800020D11448CA7A691C001DFFF749FF0128BC
:101A900018D1778084F8009014E0287B012804D0C6
:101AA0000228CAD00328CAD00CE0E97A062041B146
:101AB0003178491CC9B23170032902D084F800B0D2
:101AC00000E020700020BDE8FC9F0120FBE7000043
:101AD0000048004066000020D418002041540D0A40
:101AE0000000000041542B4E414D45574845454CA0
:101AF0005445430D0A00000041542B4E414D4257BE
:101B00004845454C5445432D494F530D0A000000AC
:101B100041542B42415544410D0A000041542B527F
:101B2000455345540D0A0000000000207047000096
:101B30000FB4044910B503AA029800F009F810BCCC
:101B40005DF814FB4C0000207047704770477047E9
:101B5000074B70B50D467B4400F011F8044628464B
:101B600000F020F810B14FF0FF3070BD204670BD7E
:101B700041F2FFFF01694A1C02610878704700B515
:101B80008FB0CDE901310021059105497944CDE9B6
:101B900003101146684600F02EF80FB000BD00009B
:101BA000E5FFFFFF007B00F080007047754600F006
:101BB0003FF8AE4605006946534620F007008546CB
:101BC00018B020B5FEF726FCBDE820404FF0000617
:101BD0004FF000074FF000084FF0000B21F0070115
:101BE000AC46ACE8C009ACE8C009ACE8C009ACE858
:101BF000C0098D4670472DE9F04106460024D6E91C
:101C00000170F5688046304603E04146B847641CE1
:101C10003046A8470028F8D12046BDE8F08110B52D
:101C20000446AFF300802046BDE81040FEF7A5BA99
:101C300000487047E4180020581C000800000020ED
:101C40007000000028010008C81C00087000002077
:101C5000D81E000044010008F4010000000000004C
:101C60000000000000A24A04000000000000000084
:101C70000102030406070809020406080000000028
:101C80000102030401020304060708090000000022
:101C90000000000000000000000000000000000044
:101CA0000000000000000000000000000000000034
:101CB00000200008000000000000000000000000FC
:081CC00000002B4F4B0D0A0040
:04000005080000ED02
:00000001FF
